{
  "contractName": "TaskContract",
  "abi": [
    {
      "inputs": [],
      "stateMutability": "nonpayable",
      "type": "constructor"
    },
    {
      "anonymous": false,
      "inputs": [
        {
          "indexed": false,
          "internalType": "uint256",
          "name": "id",
          "type": "uint256"
        },
        {
          "indexed": false,
          "internalType": "string",
          "name": "title",
          "type": "string"
        },
        {
          "indexed": false,
          "internalType": "string",
          "name": "description",
          "type": "string"
        },
        {
          "indexed": false,
          "internalType": "bool",
          "name": "done",
          "type": "bool"
        },
        {
          "indexed": false,
          "internalType": "uint256",
          "name": "createdAt",
          "type": "uint256"
        }
      ],
      "name": "TaskCreated",
      "type": "event"
    },
    {
      "anonymous": false,
      "inputs": [
        {
          "indexed": false,
          "internalType": "uint256",
          "name": "id",
          "type": "uint256"
        },
        {
          "indexed": false,
          "internalType": "bool",
          "name": "done",
          "type": "bool"
        }
      ],
      "name": "ToggleTaskDone",
      "type": "event"
    },
    {
      "inputs": [],
      "name": "taskCounter",
      "outputs": [
        {
          "internalType": "uint256",
          "name": "",
          "type": "uint256"
        }
      ],
      "stateMutability": "view",
      "type": "function",
      "constant": true
    },
    {
      "inputs": [
        {
          "internalType": "uint256",
          "name": "",
          "type": "uint256"
        }
      ],
      "name": "tasks",
      "outputs": [
        {
          "internalType": "uint256",
          "name": "id",
          "type": "uint256"
        },
        {
          "internalType": "string",
          "name": "title",
          "type": "string"
        },
        {
          "internalType": "string",
          "name": "description",
          "type": "string"
        },
        {
          "internalType": "bool",
          "name": "done",
          "type": "bool"
        },
        {
          "internalType": "uint256",
          "name": "createdAt",
          "type": "uint256"
        }
      ],
      "stateMutability": "view",
      "type": "function",
      "constant": true
    },
    {
      "inputs": [
        {
          "internalType": "string",
          "name": "_title",
          "type": "string"
        },
        {
          "internalType": "string",
          "name": "_description",
          "type": "string"
        }
      ],
      "name": "createTask",
      "outputs": [],
      "stateMutability": "nonpayable",
      "type": "function"
    },
    {
      "inputs": [
        {
          "internalType": "uint256",
          "name": "_id",
          "type": "uint256"
        }
      ],
      "name": "toggleDone",
      "outputs": [],
      "stateMutability": "nonpayable",
      "type": "function"
    }
  ],
  "bytecode": "0x6080604052600080553480156200001557600080fd5b50620000926040518060400160405280600f81526020017f4d69207072696d657220746172656100000000000000000000000000000000008152506040518060400160405280601881526020017f54656e676f207175652068616365722074616c20636f736100000000000000008152506200009860201b60201c565b620006af565b600080815480929190620000ac90620001d9565b91905055506040518060a00160405280600054815260200183815260200182815260200160001515815260200142815250600160008054815260200190815260200160002060008201518160000155602082015181600101908162000112919062000496565b5060408201518160020190816200012a919062000496565b5060608201518160030160006101000a81548160ff021916908315150217905550608082015181600401559050507f6549102bed7d1bb5ec529ee14e2ca60ffc1f47f66d4cc6ca713220613cc64c2560005483836000426040516200019495949392919062000644565b60405180910390a15050565b7f4e487b7100000000000000000000000000000000000000000000000000000000600052601160045260246000fd5b6000819050919050565b6000620001e682620001cf565b91507fffffffffffffffffffffffffffffffffffffffffffffffffffffffffffffffff82036200021b576200021a620001a0565b5b600182019050919050565b600081519050919050565b7f4e487b7100000000000000000000000000000000000000000000000000000000600052604160045260246000fd5b7f4e487b7100000000000000000000000000000000000000000000000000000000600052602260045260246000fd5b60006002820490506001821680620002a857607f821691505b602082108103620002be57620002bd62000260565b5b50919050565b60008190508160005260206000209050919050565b60006020601f8301049050919050565b600082821b905092915050565b600060088302620003287fffffffffffffffffffffffffffffffffffffffffffffffffffffffffffffffff82620002e9565b620003348683620002e9565b95508019841693508086168417925050509392505050565b6000819050919050565b600062000377620003716200036b84620001cf565b6200034c565b620001cf565b9050919050565b6000819050919050565b620003938362000356565b620003ab620003a2826200037e565b848454620002f6565b825550505050565b600090565b620003c2620003b3565b620003cf81848462000388565b505050565b5b81811015620003f757620003eb600082620003b8565b600181019050620003d5565b5050565b601f82111562000446576200041081620002c4565b6200041b84620002d9565b810160208510156200042b578190505b620004436200043a85620002d9565b830182620003d4565b50505b505050565b600082821c905092915050565b60006200046b600019846008026200044b565b1980831691505092915050565b600062000486838362000458565b9150826002028217905092915050565b620004a18262000226565b67ffffffffffffffff811115620004bd57620004bc62000231565b5b620004c982546200028f565b620004d6828285620003fb565b600060209050601f8311600181146200050e5760008415620004f9578287015190505b62000505858262000478565b86555062000575565b601f1984166200051e86620002c4565b60005b82811015620005485784890151825560018201915060208501945060208101905062000521565b8683101562000568578489015162000564601f89168262000458565b8355505b6001600288020188555050505b505050505050565b6200058881620001cf565b82525050565b600082825260208201905092915050565b60005b83811015620005bf578082015181840152602081019050620005a2565b83811115620005cf576000848401525b50505050565b6000601f19601f8301169050919050565b6000620005f38262000226565b620005ff81856200058e565b9350620006118185602086016200059f565b6200061c81620005d5565b840191505092915050565b60008115159050919050565b6200063e8162000627565b82525050565b600060a0820190506200065b60008301886200057d565b81810360208301526200066f8187620005e6565b90508181036040830152620006858186620005e6565b905062000696606083018562000633565b620006a560808301846200057d565b9695505050505050565b610c8d80620006bf6000396000f3fe608060405234801561001057600080fd5b506004361061004c5760003560e01c8063292a458514610051578063586717301461006d5780638d9776721461008b578063d81ef739146100bf575b600080fd5b61006b600480360381019061006691906106d0565b6100db565b005b6100756101db565b6040516100829190610761565b60405180910390f35b6100a560048036038101906100a091906107a8565b6101e1565b6040516100b6959493929190610878565b60405180910390f35b6100d960048036038101906100d491906107a8565b610334565b005b6000808154809291906100ed90610908565b91905055506040518060a0016040528060005481526020018381526020018281526020016000151581526020014281525060016000805481526020019081526020016000206000820151816000015560208201518160010190816101519190610b5c565b5060408201518160020190816101679190610b5c565b5060608201518160030160006101000a81548160ff021916908315150217905550608082015181600401559050507f6549102bed7d1bb5ec529ee14e2ca60ffc1f47f66d4cc6ca713220613cc64c2560005483836000426040516101cf959493929190610878565b60405180910390a15050565b60005481565b600160205280600052604060002060009150905080600001549080600101805461020a9061097f565b80601f01602080910402602001604051908101604052809291908181526020018280546102369061097f565b80156102835780601f1061025857610100808354040283529160200191610283565b820191906000526020600020905b81548152906001019060200180831161026657829003601f168201915b5050505050908060020180546102989061097f565b80601f01602080910402602001604051908101604052809291908181526020018280546102c49061097f565b80156103115780601f106102e657610100808354040283529160200191610311565b820191906000526020600020905b8154815290600101906020018083116102f457829003601f168201915b5050505050908060030160009054906101000a900460ff16908060040154905085565b6000600160008381526020019081526020016000206040518060a00160405290816000820154815260200160018201805461036e9061097f565b80601f016020809104026020016040519081016040528092919081815260200182805461039a9061097f565b80156103e75780601f106103bc576101008083540402835291602001916103e7565b820191906000526020600020905b8154815290600101906020018083116103ca57829003601f168201915b505050505081526020016002820180546104009061097f565b80601f016020809104026020016040519081016040528092919081815260200182805461042c9061097f565b80156104795780601f1061044e57610100808354040283529160200191610479565b820191906000526020600020905b81548152906001019060200180831161045c57829003601f168201915b505050505081526020016003820160009054906101000a900460ff16151515158152602001600482015481525050905080606001511581606001901515908115158152505080600160008481526020019081526020016000206000820151816000015560208201518160010190816104f19190610b5c565b5060408201518160020190816105079190610b5c565b5060608201518160030160006101000a81548160ff021916908315150217905550608082015181600401559050507fbcbca79b3ea7352919732741c1f42ee465381b247d9db1879feaa0f775acadb982826060015160405161056a929190610c2e565b60405180910390a15050565b6000604051905090565b600080fd5b600080fd5b600080fd5b600080fd5b6000601f19601f8301169050919050565b7f4e487b7100000000000000000000000000000000000000000000000000000000600052604160045260246000fd5b6105dd82610594565b810181811067ffffffffffffffff821117156105fc576105fb6105a5565b5b80604052505050565b600061060f610576565b905061061b82826105d4565b919050565b600067ffffffffffffffff82111561063b5761063a6105a5565b5b61064482610594565b9050602081019050919050565b82818337600083830152505050565b600061067361066e84610620565b610605565b90508281526020810184848401111561068f5761068e61058f565b5b61069a848285610651565b509392505050565b600082601f8301126106b7576106b661058a565b5b81356106c7848260208601610660565b91505092915050565b600080604083850312156106e7576106e6610580565b5b600083013567ffffffffffffffff81111561070557610704610585565b5b610711858286016106a2565b925050602083013567ffffffffffffffff81111561073257610731610585565b5b61073e858286016106a2565b9150509250929050565b6000819050919050565b61075b81610748565b82525050565b60006020820190506107766000830184610752565b92915050565b61078581610748565b811461079057600080fd5b50565b6000813590506107a28161077c565b92915050565b6000602082840312156107be576107bd610580565b5b60006107cc84828501610793565b91505092915050565b600081519050919050565b600082825260208201905092915050565b60005b8381101561080f5780820151818401526020810190506107f4565b8381111561081e576000848401525b50505050565b600061082f826107d5565b61083981856107e0565b93506108498185602086016107f1565b61085281610594565b840191505092915050565b60008115159050919050565b6108728161085d565b82525050565b600060a08201905061088d6000830188610752565b818103602083015261089f8187610824565b905081810360408301526108b38186610824565b90506108c26060830185610869565b6108cf6080830184610752565b9695505050505050565b7f4e487b7100000000000000000000000000000000000000000000000000000000600052601160045260246000fd5b600061091382610748565b91507fffffffffffffffffffffffffffffffffffffffffffffffffffffffffffffffff8203610945576109446108d9565b5b600182019050919050565b7f4e487b7100000000000000000000000000000000000000000000000000000000600052602260045260246000fd5b6000600282049050600182168061099757607f821691505b6020821081036109aa576109a9610950565b5b50919050565b60008190508160005260206000209050919050565b60006020601f8301049050919050565b600082821b905092915050565b600060088302610a127fffffffffffffffffffffffffffffffffffffffffffffffffffffffffffffffff826109d5565b610a1c86836109d5565b95508019841693508086168417925050509392505050565b6000819050919050565b6000610a59610a54610a4f84610748565b610a34565b610748565b9050919050565b6000819050919050565b610a7383610a3e565b610a87610a7f82610a60565b8484546109e2565b825550505050565b600090565b610a9c610a8f565b610aa7818484610a6a565b505050565b5b81811015610acb57610ac0600082610a94565b600181019050610aad565b5050565b601f821115610b1057610ae1816109b0565b610aea846109c5565b81016020851015610af9578190505b610b0d610b05856109c5565b830182610aac565b50505b505050565b600082821c905092915050565b6000610b3360001984600802610b15565b1980831691505092915050565b6000610b4c8383610b22565b9150826002028217905092915050565b610b65826107d5565b67ffffffffffffffff811115610b7e57610b7d6105a5565b5b610b88825461097f565b610b93828285610acf565b600060209050601f831160018114610bc65760008415610bb4578287015190505b610bbe8582610b40565b865550610c26565b601f198416610bd4866109b0565b60005b82811015610bfc57848901518255600182019150602085019450602081019050610bd7565b86831015610c195784890151610c15601f891682610b22565b8355505b6001600288020188555050505b505050505050565b6000604082019050610c436000830185610752565b610c506020830184610869565b939250505056fea264697066735822122066b1cccfc04e7742365b0a81b7b220c9b7491ed93fae55f6725c1361efe1921764736f6c634300080f0033",
  "immutableReferences": {},
  "source": "// SPDX-License-Identifier: MIT\r\npragma solidity ^0.8.6;\r\n\r\ncontract TaskContract {\r\n    uint public taskCounter = 0;\r\n\r\n    constructor() {\r\n        createTask(\"Mi primer tarea\", \"Tengo que hacer tal cosa\");\r\n    }\r\n\r\n    event TaskCreated (\r\n        uint id,\r\n        string title,\r\n        string description,\r\n        bool done,\r\n        uint createdAt\r\n    );\r\n\r\n    event ToggleTaskDone (\r\n        uint id,\r\n        bool done\r\n    );\r\n\r\n    // uint = uint256\r\n    struct Task {\r\n        uint id;\r\n        string title;\r\n        string description;\r\n        bool done;\r\n        uint createdAt;\r\n    }\r\n\r\n    mapping (uint => Task) public tasks;\r\n\r\n    function createTask(string memory _title, string memory _description) public {\r\n        taskCounter++;\r\n        tasks[taskCounter] = Task(taskCounter, _title, _description, false, block.timestamp);\r\n        emit TaskCreated(taskCounter, _title, _description, false, block.timestamp);\r\n    }\r\n\r\n    function toggleDone(uint _id) public {\r\n       Task memory _task = tasks[_id];\r\n       _task.done = !_task.done;\r\n       tasks[_id] = _task;\r\n       emit ToggleTaskDone(_id, _task.done);\r\n    }\r\n}",
  "sourcePath": "C:\\Users\\Matias\\Desktop\\myFirstContract\\contracts\\TaskContract.sol",
  "compiler": {
    "name": "solc",
    "version": "0.8.15+commit.e14f2714.Emscripten.clang"
  },
  "schemaVersion": "3.4.8",
  "updatedAt": "2022-07-13T22:22:27.630Z",
  "networkType": "ethereum",
  "devdoc": {
    "kind": "dev",
    "methods": {},
    "version": 1
  },
  "userdoc": {
    "kind": "user",
    "methods": {},
    "version": 1
  }
}